S0130000456E7472656761626C65342E73726563E4
S11300000C9434000C9451000C9451000C94510045
S11300100C9451000C9451000C9451000C94510018
S11300200C9451000C9451000C9451000C94510008
S11300300C9451000C9451000C940C020C9451003B
S11300400C9451000C9451000C9451000C945100E8
S11300500C9451000C9451000C9451000C945100D8
S11300600C9451000C94510011241FBECFEFD8E022
S1130070DEBFCDBF11E0A0E0B1E0E8E6F4E002C0ED
S113008005900D92A030B107D9F721E0A0E0B1E0CE
S113009001C01D92AB30B207E1F70E94C9000C9475
S11300A032020C940000ECE7F0E0808183608083EE
S11300B080818064808380818F7D8083EAE7F0E0A3
S11300C0808187608083EEE7F0E0808188608083B0
S11300D087B1877F87B90895EAE7F0E08081806877
S11300E080830895EAE7F0E0808180648083089546
S11300F080917800909179000895813021F5809164
S1130100880090918900892B39F0E8E8F0E080813B
S1130110918105979183808380918A0090918B00CF
S1130120892B39F0EAE8F0E0808191810597918389
S113013080830E94F8018A3F58F50E94F8018B5F82
S11301400E94F501089580918800909189008F3F65
S1130150910538F4E8E8F0E0808191810596918377
S1130160808380918A0090918B008F3F910538F4B1
S1130170EAE8F0E0808191810596918380830E9472
S1130180F801823028F00E94F80185500E94F501A0
S113019008950E94E8000E9453000E949D010E945D
S11301A0AF0184B1806284B90E946C000E94720025
S11301B080917A0084FFFCCFEAE7F0E080818061DF
S11301C080830E9478000E94FB010E947200F0CF9D
S11301D0109289001092880010928B0010928A006D
S11301E085B1826085B985B1846085B910920A01B0
S11301F00895853D934020F081E08093000102C082
S11302001092000180910A01813009F46AC030F033
S11302108230D9F1833009F44FC008958FEF90E014
S1130220909389008093880090938B0080938A0038
S1130230809100018130A1F480910101909102012B
S113024001969093020180930101019709F074C013
S1130250109202011092010182E080930A01089534
S11302608091010190910201019690930201809383
S113027001018737914009F05FC01092020110928A
S1130280010182E080930A01089581E00E947D00CB
S11302908091010190910201019690930201809353
S11302A00101CF9709F048C0109202011092010198
S11302B081E080930A01089580E00E947D0080918E
S11302C00101909102010196909302018093010132
S11302D0CF9791F5109202011092010110920A0138
S11302E00895809100018130A1F4809101019091E1
S11302F00201019690930201809301018D379105CB
S1130300D9F4109202011092010183E080930A0152
S11303100895809101019091020101969093020148
S1130320809301018D37910539F4109202011092E6
S1130330010183E080930A0108958AB180648AB937
S113034084B5826484BD85B5816085BD84E187BD43
S1130350EEE6F0E080818260808378940895E0E89E
S1130360F0E0808181608083A1E8B0E08C918860B6
S11303708C938081806880838081806280838C916B
S113038083608C9384B1846084B984B1826084B9BD
S11303908FEF90E0909389008093880090938B0076
S11303A080938A0008958091050190910601019639
S11303B090930601809305018F3F910540F01092C0
S11303C006011092050185B1806285B908952091D6
S11303D0090130E08217930720F485B18F7D85B938
S11303E0089585B1806285B90895809309010895BF
S11303F080910901089520910801222321F00E948F
S1130400F9001092080180910701882321F00E94CD
S1130410D3011092070108951F920F920FB60F9205
S113042011242F938F939F93809103019091040142
S113043001969093040180930301883E934039F41C
S113044081E080930801109204011092030181E07D
S1130450809307019F918F912F910F900FBE0F9062
S10B04601F901895F894FFCFDA
S9030000FC
