:100000000C9434000C9451000C9451000C94510049
:100010000C9451000C9451000C9451000C9451001C
:100020000C9451000C9451000C9451000C9451000C
:100030000C9451000C9451000C94E4010C94510068
:100040000C9451000C9451000C9451000C945100EC
:100050000C9451000C9451000C9451000C945100DC
:100060000C9451000C94510011241FBECFEFD8E026
:10007000DEBFCDBF11E0A0E0B1E0EEEEF3E002C0E4
:1000800005900D92A030B107D9F721E0A0E0B1E0D2
:1000900001C01D92A930B207E1F70E94B7000C948D
:1000A000F5010C940000ECE7F0E080818360808330
:1000B00080818064808380818F7D8083EAE7F0E0A7
:1000C000808187608083EEE7F0E0808188608083B4
:1000D00087B1877F87B90895EAE7F0E0808180687B
:1000E00080830895EAE7F0E080818064808308954A
:1000F000809178009091790008958130E9F48091A1
:100100008800909189008C3D910538F4E8E8F0E092
:100110008081918101969183808380918A00909162
:100120008B008E36910510F5EAE8F0E08081918130
:100130000196918380830895809188009091890031
:10014000029738F0E8E8F0E080819181019791838F
:10015000808380918A0090918B00029738F0EAE8C2
:10016000F0E08081918101979183808308950E94BE
:10017000D6000E9453000E9480010E948F0184B12A
:10018000806284B90E946C000E94720080917A00A3
:1001900084FFFCCFEAE7F0E08081806180830E94E9
:1001A00078000E94D3010E947200F0CF8FEF90E0A0
:1001B000909389008093880090938B0080938A00AD
:1001C000109208010895893E934020F081E08093C9
:1001D000000102C01092000180910801813009F4F1
:1001E00063C030F0823091F1833009F447C0089544
:1001F000809100018130A9F4809101019091020168
:1002000001969093020180930101883E934009F08A
:1002100076C0109202011092010182E080930801E1
:10022000089580910101909102010196909302013D
:1002300080930101883B9B4009F061C0109202014C
:100240001092010182E080930801089581E00E94EC
:100250007D0080910101909102010196909302012D
:1002600080930101843F914009F049C0109202013E
:100270001092010181E080930801089580E00E94BE
:100280007D008091010190910201019690930201FD
:1002900080930101843F914091F5109202011092E8
:1002A0000101109208010895809100018130A1F4AC
:1002B0008091010190910201019690930201809337
:1002C0000101883E9340D9F410920201109201017D
:1002D00083E08093080108958091010190910201CB
:1002E00001969093020180930101883B9B4039F471
:1002F000109202011092010183E080930801089599
:1003000084B5826484BD85B5836085BD88EF87BD73
:10031000EEE6F0E080818260808378940895E0E8E2
:10032000F0E0808181608083A1E8B0E08C918860FA
:100330008C938081806C80838081806380838C91AA
:1003400083608C9384B1846084B984B1826084B901
:1003500010928B0010928A001092890010928800EF
:1003600008958091030190910401019690930401F6
:10037000809303018F3F910540F010920401109289
:10038000030185B1806285B908952091070130E0AD
:100390008217930720F485B18F7D85B9089585B1C3
:1003A000806285B9089520910601222321F00E94E0
:1003B000E3001092060180910501882321F00E943C
:1003C000B1011092050108951F920F920FB60F927E
:1003D00011248F9381E080930601809305018F9112
:0E03E0000F900FBE0F901F901895F894FFCF4E
:00000001FF
