:100000000C943B000C9458000C9458000C9458002D
:100010000C9458000C9458000C9458000C94580000
:100020000C9458000C9458000C9458000C945800F0
:100030000C9458000C9458000C940D020C94580029
:100040000C9458000C9458000C9452050C9487059D
:100050000C9458000C9458000C9458000C945800C0
:100060000C9458000C9458000F041304FC03FF0375
:10007000030407040B0411241FBECFEFD8E0DEBF3A
:10008000CDBF13E0A0E0B1E0ECE6FCE002C00590DB
:100090000D92AC34B107D9F724E0ACE4B3E001C071
:1000A0001D92AF35B207E1F70E9408010C943406A7
:1000B0000C94000083E091E00E94070586E991E03E
:1000C0000E94070583E191E00E94070586E991E01F
:1000D0000E94070581E291E00E94070586E991E010
:1000E0000E9407058BE291E00E94070586E991E0F6
:1000F0000E9407058AE391E00E94070586E991E0E6
:100100000E94070589E491E00E94070586E991E0D5
:100110000E94070586E591E00E94070586E991E0C7
:100120000E94070586E991E00E940705089585E190
:10013000E1E6F1E0ACE4B3E001900D928A95E1F7DD
:100140008CE493E00E940705089581E1E6E7F1E081
:10015000ACE4B3E001900D928A95E1F78CE493E072
:100160000E94070582E1E7E8F1E0ACE4B3E001902A
:100170000D928A95E1F78CE493E00E94070581E1F6
:10018000E6E7F1E0ACE4B3E001900D928A95E1F787
:100190008CE493E00E94070586E991E00E94070540
:1001A0000E945A0008958BE2E9E9F1E0ACE4B3E083
:1001B00001900D928A95E1F78CE493E00E94070587
:1001C00085E3E4ECF1E0ACE4B3E001900D928A95B4
:1001D000E1F78CE493E00E9407058CE3E9EFF1E09E
:1001E000ACE4B3E001900D928A95E1F78CE493E0E2
:1001F0000E94070580E3E5E3F2E0ACE4B3E00190A0
:100200000D928A95E1F78CE493E00E94070508952A
:1002100087E60E94C5040E94CF040E94DB040E946E
:10022000E10478940E94F0040E94E7040E94A50172
:100230000E9435050E94A801FBCFCF93DF9365E6AE
:1002400072E082EC93E00E941C06892B41F167E684
:1002500072E082EC93E00E941C06892B01F169E6B2
:1002600072E082EC93E00E941C06892BC1F06BE6E1
:1002700072E082EC93E00E941C06892B81F06DE60F
:1002800072E082EC93E00E941C06892B41F06AE444
:1002900073E082EC93E00E941C06892B71F480913C
:1002A000F40381114FC084E08093F40382EC93E067
:1002B0000E94FE058093C10345C06FE672E082ECA8
:1002C00093E00E941C06892B51F48091F403813045
:1002D00011F08430B9F582E08093F40333C064E711
:1002E00072E082EC93E00E941C06EC01892B41F441
:1002F0008091F403823021F481E08093F40322C0E2
:1003000069E772E082EC93E00E941C06892B31F4CD
:1003100081E0809300011092F40314C0209721F42F
:100320008091F403813071F0209721F48091F403DF
:10033000882341F0CD2B21F48091F403843011F017
:100340000E949700DF91CF9108951092F4030895D1
:100350008091F403813009F44FC028F08230A9F174
:100360008430E9F0089580910001882331F00E94E3
:10037000A5000E94D300109200010E94FE0481306B
:1003800009F04AC080E00E9401050E940405BC01FA
:1003900082EC93E00E9425060E941D0108950E94B0
:1003A000FE04813061F480E00E9401050E94040592
:1003B000BC0182EC93E00E9425060E941D01809101
:1003C000C10381500E94520208950E94FE048130B0
:1003D00061F480E00E9401050E940405BC0182ECEA
:1003E00093E00E9425060E941D010E94B303811123
:1003F00013C01092F40308950E94FE04813061F44A
:1004000080E00E9401050E940405BC0182EC93E09B
:100410000E9425060E941D0108951F920F920FB69B
:100420000F9211248F939F938091F8039091F90379
:10043000009731F001979093F9038093F80306C079
:10044000109280001092B9031092B8039F918F917F
:100450000F900FBE0F901F9018954091B8035091C8
:10046000B903452BD1F77093F9036093F803E0E8E3
:10047000F0E02081206420839C0140E050E060E0B7
:1004800072E18AE790E00E94B7052150310930936C
:1004900089002093880081E090E09093B9038093D5
:1004A000B8030895E82FF0E0EE0FFF1FEF5FFE4F57
:1004B000808191819093B1038093B00384E0809315
:1004C000F7038FE390E09093F6038093F50386E0C3
:1004D0008093FA0305C03196F093B103E093B00323
:1004E000E091B003F091B10380818A33A1F7319696
:1004F000F093B103E093B00328C1843609F050C0F3
:100500001092F7033196F093B103E093B00305C066
:100510003196F093B103E093B003E091B003F09112
:10052000B10380818D33A1F305C03196F093B103FF
:10053000E093B003E091B003F091B1038081803289
:10054000A1F380538A3010F48093F7039F012F5F4B
:100550003F4F3093B1032093B003818190ED980F0A
:100560009A30B8F49091F703990F492F440F440F34
:10057000940F890F80538093F7032F5F3F4F309381
:10058000B1032093B00305C03196F093B103E0931B
:10059000B003E091B003F091B10380818C32A1F3FC
:1005A000E091B003F091B10380818F36C1F51092D4
:1005B000FA033196F093B103E093B00305C031968E
:1005C000F093B103E093B003E091B003F091B10375
:1005D00080818D33A1F305C03196F093B103E09390
:1005E000B003E091B003F091B10380818032A1F3B8
:1005F00080538A3010F48093FA033196F093B1035C
:10060000E093B00305C03196F093B103E093B003DB
:10061000E091B003F091B10380818C32A1F3E091BD
:10062000B003F091B1038081823609F087C0109247
:10063000F6031092F5033196F093B103E093B00303
:1006400005C03196F093B103E093B003E091B0039D
:10065000F091B10380818D33A1F305C03196F09301
:10066000B103E093B003E091B003F091B103808156
:100670008032A1F390ED980F9A3030F490E0C0975B
:100680009093F6038093F503DF011196B093B103C5
:10069000A093B003418180ED840F8A3008F041C0FF
:1006A0002091F5033091F603C901880F991F220F9D
:1006B000331F220F331F220F331F820F931F840F0C
:1006C000911DC0979093F6038093F5039D012F5FD2
:1006D0003F4F3093B1032093B00311964C9150EDEE
:1006E000540F5A30F0F4BC01660F771F880F991F22
:1006F000880F991F880F991F860F971F840F911DD0
:10070000C0979093F6038093F5032F5F3F4F30938C
:10071000B1032093B00305C03196F093B103E09389
:10072000B003E091B003F091B10380818C32A1F36A
:1007300005C03196F093B103E093B003E091B003AC
:10074000F091B10380818C32A1F3E091B003F0917C
:10075000B10380818A3309F0D0CE3196F093B10392
:10076000E093B00308950F93CF93DF93E091B0032C
:10077000F091B1038081882309F402C19FEF909327
:10078000B5039091FA039093B6039091F703909379
:10079000B7031092B40380538A30E8F48093B70310
:1007A0009F012F5F3F4F3093B1032093B00391819E
:1007B00040ED490F4A3078F4880F482F440F440F1A
:1007C000840F980F90539093B7032F5F3F4F309350
:1007D000B1032093B003C091B003D091B103E8817D
:1007E0008E2F90E0FC01E156F109E730F105F0F4BD
:1007F000EC5CFF4F0C94D6051092B50317C082E055
:100800008093B50313C084E08093B5030FC085E0E7
:100810008093B5030BC087E08093B50307C089E0E0
:100820008093B50303C08BE08093B503CE0101969E
:100830009093B1038093B0032981233251F4209126
:10084000B5032F5F2093B50301969093B103809376
:10085000B003E091B003F091B10380818E3241F496
:1008600081E08093B4033196F093B103E093B00339
:10087000E091B003F091B103808180538A3038F465
:100880008093B6033196F093B103E093B003E09107
:10089000B003F091B10380818E3271F481E08093D6
:1008A000B4033196F093B103E093B00305C03196E1
:1008B000F093B103E093B003E091B003F091B10382
:1008C00080818C32A1F32091F5033091F60340E052
:1008D00050E060E67AEE80E090E00E94B705CA0141
:1008E000B9010091B703202F30E040E050E00E94B2
:1008F000B705220F331F220F331F3093B30320930A
:10090000B2038091B403882359F0C901880F991F5D
:10091000280F391F369527953093B3032093B203E0
:100920002091B5032F3FE9F08091B60390E0049742
:100930006091B2037091B303FC01EE0FFF1FE80F4B
:10094000F91FEE0FFF1FEE0FFF1FE20FF11DEE0F5D
:10095000FF1FE158FD4F808191810E942D0281E0AF
:1009600010C08091B2039091B3039093F9038093E8
:10097000F80381E090E09093B9038093B80301C03D
:1009800080E0DF91CF910F9108951092C10096E021
:100990009093C2001092C5008093C4000895E1ECCA
:1009A000F0E08081886080830895E1ECF0E0808150
:1009B000806280830895E1ECF0E080818061808333
:1009C0000895E1ECF0E0808180688083089588EFED
:1009D00087BD82E084BD93E095BD80936E0008954D
:1009E000E0E8F0E0808180648083E1E8F0E08081ED
:1009F0008960808384B1826084B908958091BE0348
:100A000008958093BE0308958BEF93E00895BC0191
:100A10009091BF039111FCCF81E08093BF03FB0154
:100A200001900020E9F73197E61BF70BE093BA033A
:100A30008DE294E00E9425060E94D5040895FC01F1
:100A400001900020E9F73197E81BF90BDC01AE0FAC
:100A5000B11D2DE02C93EF5FE093BA039C012E0FA4
:100A6000311DF9012AE0208308958091C003882375
:100A7000C1F06BEF73E08DE294E00E9425068DE2F9
:100A800094E00E941F0581E08093BF030E94D5047B
:100A90008091BF038111FCCF81E08093BE0310924F
:100AA000C00308951F920F920FB60F9211248F93D7
:100AB000EF93FF938091C6008093BB03E091BD0349
:100AC000F0E08091BB03E550FC4F80838091BB0335
:100AD0008D3021F08091BD03803360F081E0809300
:100AE000C003E091BD03F0E0E550FC4F108210928E
:100AF000BD0305C08091BD038F5F8093BD03FF914F
:100B0000EF918F910F900FBE0F901F9018951F922D
:100B10000F920FB60F9211248F93EF93FF93E091F2
:100B2000BC03F0E0E35DFB4F80818093C6008091C1
:100B3000BC038F5F8093BC038091BA0381110CC00A
:100B40001092BC031092BA031092BF03E1ECF0E0E4
:100B500080818F7D808303C081508093BA03FF9191
:100B6000EF918F910F900FBE0F901F901895052E4B
:100B700097FB1EF400940E94CE0557FD07D00E94FB
:100B8000DC0507FC03D04EF40C94CE05509540953F
:100B9000309521953F4F4F4F5F4F08959095809529
:100BA000709561957F4F8F4F9F4F0895EE0FFF1FF8
:100BB0000590F491E02D0994A1E21A2EAA1BBB1B0B
:100BC000FD010DC0AA1FBB1FEE1FFF1FA217B30719
:100BD000E407F50720F0A21BB30BE40BF50B661F2F
:100BE000771F881F991F1A9469F7609570958095F3
:100BF00090959B01AC01BD01CF010895FC018827B0
:100C00009927E89421912032E9F3293010F02E3011
:100C1000C8F32B3241F02D3239F4689404C00E949D
:100C20002C06820F911D219120532A30C0F31EF40F
:100C3000909581959F4F0895FB01DC018D91019066
:100C400080190110D9F3990B0895FB01DC01019083
:100C50000D920020E1F708957AE0979F902D879FED
:0C0C6000802D910D11240895F894FFCF11
:100C6C0001DF02312D205468652053696D70736F5C
:100C7C006E7300322D204D697373696F6E496D7000
:100C8C0000332D204261746D616E00342D2050694B
:100C9C006E6B70616E7468657200352D20416461F5
:100CAC006D7366616D696C7900362D2041726765D4
:100CBC006E74696E6100372D20496E6469616E61D6
:100CCC0000436F6D616E646F206E6F2076616C698E
:100CDC00646F200D0A002A2A2A2A2A2A2A2A2A2A5A
:100CEC002A2A2A2A0D0A002A204269656E76656E28
:100CFC0069646F202A200D0A00504C41593A207229
:100D0C006570726F64756365206C612063616E63DE
:100D1C00696F6E2073656C656363696F6E61646186
:100D2C00200D0A0053544F503A2064657469656E67
:100D3C0065206C6120726570726F64756363696F96
:100D4C006E2064656C20736F6E69646F20656E2015
:100D5C00637572736F200D0A004E554D3A206E75F7
:100D6C006D65726F2064652063616E63696F6E20C0
:100D7C00612073656C656363696F6E617220646575
:100D8C00206C61206C69737461205B312061204E92
:100D9C005D200D0A0052455345543A207265696E28
:100DAC006963696120656C2073697374656D61207A
:100DBC00616C2065737461646F20696E696369612D
:100DCC006C200D0A00310032003300340035005025
:100DDC004C41590053544F50005245534554000652
:100DEC00011501260137014A015D01720188019F3D
:100DFC0001B801D201EE010B022A024B026E0293E2
:100E0C0002BA02E40210033E037003A403DC0317CE
:100E1C000455049704DC0427057505C80520067CD9
:100E2C0006E0064907B8072D08AA082D09B9094D8F
:100E3C000AEA0A900B400CF80CC00D900E6F0F5480
:100E4C00686553696D70736F6E733A643D342C6FC3
:100E5C003D352C623D3136303A632E362C65362CBE
:100E6C006623362C3861362C672E362C65362C636F
:100E7C00362C38612C3866232C3866232C386623A4
:100E8C002C32672C38702C38702C3866232C386632
:100E9C00232C3866232C38672C61232E2C38633690
:0C0EAC002C3863362C3863362C6336007B
:00000001FF
