:100000000C9434000C9449000C9449000C94490061
:100010000C9449000C9449000C9449000C9449003C
:100020000C9449000C9449000C9449000C9449002C
:100030000C9449000C9449000C9449000C9449001C
:100040000C9449000C9449000C9449000C9449000C
:100050000C9449000C9449000C9449000C944900FC
:100060000C9449000C94490011241FBECFEFD8E036
:10007000DEBFCDBF11E0A0E0B1E0EAE1F2E002C0F6
:1000800005900D92AA30B107D9F70E94B4000C94E4
:100090000B010C9400000F931F93CF93DF93FB0190
:1000A000EA01DC018C9190E0009739F06AE070E0A1
:1000B0000E94E3008083862F972F009739F06AE033
:1000C00070E00E94E3008883862F972F009741F00D
:1000D0006AE070E00E94E300F9018083862F972F89
:1000E000009731F06AE070E00E94E300D8018C9341
:1000F000DF91CF911F910F91089580509F4FFC0188
:10010000908195B981E088B9EFE9FFE03197F1F787
:1001100000C00000FB01E050FF4F608165B962E064
:1001200068B9EFE9FFE03197F1F700C00000FA018C
:10013000E050FF4F408145B944E048B9EFE9FFE0A6
:100140003197F1F700C00000F901E050FF4F208126
:1001500025B928E028B9EFE9FFE03197F1F700C0B1
:10016000000095B988B90895CF93DF9300D000D0EF
:100170001F92CDB7DEB719821A821B821C821D82A4
:100180008FEF84B98FE087B91AB88E010B5F1F4FCC
:100190009E012C5F3F4FAE014D5F5F4FBE016E5F12
:1001A0007F4FCE0101960E944B0089818F5F89832A
:1001B0002D8130E04C8150E06B8170E08A8190E0CD
:1001C0000E947D00E2CF97FB072E16F4009407D023
:1001D00077FD09D00E94F70007FC05D03EF490950A
:1001E00081959F4F0895709561957F4F0895AA1B43
:1001F000BB1B51E107C0AA1FBB1FA617B70710F012
:10020000A61BB70B881F991F5A95A9F78095909543
:0A021000BC01CD010895F894FFCF62
:0A021A003F065B4F666D7D077F6FA6
:00000001FF
