:100000000C9434000C9449000C9449000C94490061
:100010000C9449000C9449000C9449000C9449003C
:100020000C9449000C9449000C9449000C9449002C
:100030000C9449000C9449000C9449000C9449001C
:100040000C9449000C9449000C9449000C9449000C
:100050000C9449000C9449000C9449000C944900FC
:100060000C9449000C94490011241FBECFEFD8E036
:10007000DEBFCDBF11E0A0E0B1E0E2E6F3E002C0F8
:1000800005900D92AA30B107D9F70E9454010C9443
:10009000AF010C94000029B1482F30E0B90102C033
:1000A000759567958A95E2F760FD1EC07FEF89EF31
:1000B00090E0715080409040E1F700C0000089B1AD
:1000C00090E0042E02C0959587950A94E2F780FF90
:1000D000F6CF2FEF69EF70E0215060407040E1F7FC
:1000E00000C0000081E0089580E00895EF92FF9243
:1000F0000F931F93CF93DF937B01E901DC01ED9117
:10010000FC91309739F19F01ADECBCEC0E94A0014D
:100110009695879596958795969587959C01220F3C
:10012000331F880F991F880F991F880F991F820FFF
:10013000931F9F01281B390BD7012C939F01ADEC16
:10014000BCEC0E94A001FC01F695E795F695E795B9
:10015000F695E795309739F19F01ADECBCEC0E9424
:10016000A0019695879596958795969587959C017C
:10017000220F331F880F991F880F991F880F991F0F
:10018000820F931F9F01281B390BDA012C939F01CB
:10019000ADECBCEC0E94A001FC01F695E795F6954C
:1001A000E795F695E795309721F19F01ADECBCEC12
:1001B0000E94A00196958795969587959695879527
:1001C0009C01220F331F880F991F880F991F880FDA
:1001D000991F820F931F9F01281B390B28839F01B2
:1001E0000E94A001FC01F695E795F695E795F69536
:1001F000E7953097D9F09F01ADECBCEC0E94A001CF
:100200009695879596958795969587959C01220F4B
:10021000331F880F991F880F991F880F991F820F0E
:10022000931FDF01A81BB90BF801A083DF91CF91C9
:100230001F910F91FF90EF90089580509F4FFC0108
:10024000908195B981E088B9EFE0F7E23197F1F755
:1002500000C00000FB01E050FF4F608165B962E023
:1002600068B9EFE0F7E23197F1F700C00000FA015A
:10027000E050FF4F408145B944E048B9EFE0F7E274
:100280003197F1F700C00000F901E050FF4F2081E5
:1002900025B928E028B9EFE0F7E23197F1F700C07F
:1002A000000095B988B90895CF93DF9300D000D0AE
:1002B00000D0CDB7DEB71A8219821B821C821D8244
:1002C0001E828FEF84B98FE087B91AB8F12C80E0D5
:1002D0000E944B00882331F01A8219821B821C82F3
:1002E0001D821E8281E00E944B00882311F0FF24B2
:1002F000F39482E00E944B008111F12CFF20A9F0C1
:100300008E010A5F1F4F9E012B5F3F4FAE014C5F76
:100310005F4FBE016D5F7F4FCE0101960E94760058
:1003200089819A8101969A8389832E8130E04D815B
:1003300050E06C8170E08B8190E00E941D01C7CF7E
:10034000A29FB001B39FC001A39F700D811D112416
:10035000911DB29F700D811D1124911D0895F89477
:02036000FFCFCD
:0A0362003F065B4F666D7D077F6F5D
:00000001FF
